{"abi":[{"type":"function","name":"JWT_VALIDATOR_ID","inputs":[],"outputs":[{"name":"","type":"bytes32","internalType":"bytes32"}],"stateMutability":"view"}],"bytecode":{"object":"0x60a6610038600b82828239805160001a607314602b57634e487b7160e01b600052600060045260246000fd5b30600052607381538281f3fe730000000000000000000000000000000000000000301460806040526004361060335760003560e01c80630b4c029d146038575b600080fd5b605e7fb53bb445ee149ca8e19d83dd7bb4001bfd1aef3a7d3d1a63426921ab119b0e6981565b60405190815260200160405180910390f3fea2646970667358221220eb671deb24a98ce3f72c2d9b01b8d3df884cea98f4f62032c4e2c0f7974f892164736f6c63430008140033","linkReferences":{}},"methodIdentifiers":{"JWT_VALIDATOR_ID()":"0b4c029d"},"id":1}