{"abi":[{"type":"function","name":"JWT_VALIDATOR_PATH","inputs":[],"outputs":[{"name":"","type":"string","internalType":"string"}],"stateMutability":"view"}],"bytecode":{"object":"0x61017f61003a600b82828239805160001a60731461002d57634e487b7160e01b600052600060045260246000fd5b30600052607381538281f3fe73000000000000000000000000000000000000000030146080604052600436106100355760003560e01c80638016dbc61461003a575b600080fd5b610042610058565b60405161004f9190610074565b60405180910390f35b6040518060c00160405280608781526020016100c36087913981565b600060208083528351808285015260005b818110156100a157858101830151858201604001528201610085565b506000604082860101526040601f19601f830116850101925050509291505056fe2f55736572732f726576616e746867756e64616c612f70726f6a656374732f7363616c696e672d6574682d6861636b6174686f6e2f64656d6f732f626f6e7361692d7061792f7461726765742f72697363762d67756573742f72697363763332696d2d72697363302d7a6b766d2d656c662f72656c656173652f6a77742d76616c696461746f72a2646970667358221220f5117eafb80ad156e037f042b58ece93265bc732740c6a64602e579140fb2d5d64736f6c63430008140033","linkReferences":{}},"methodIdentifiers":{"JWT_VALIDATOR_PATH()":"8016dbc6"},"id":36}