{"abi":[{"type":"function","name":"callback","inputs":[{"name":"increment","type":"uint256","internalType":"uint256"}],"outputs":[],"stateMutability":"nonpayable"},{"type":"function","name":"request_callback","inputs":[{"name":"image_id","type":"bytes32","internalType":"bytes32"},{"name":"input","type":"bytes","internalType":"bytes"},{"name":"gas_limit","type":"uint64","internalType":"uint64"},{"name":"relay","type":"address","internalType":"contract IBonsaiRelay"}],"outputs":[],"stateMutability":"nonpayable"},{"type":"function","name":"value","inputs":[],"outputs":[{"name":"","type":"uint256","internalType":"uint256"}],"stateMutability":"view"}],"bytecode":{"object":"0x60806040526000805534801561001457600080fd5b506102b7806100246000396000f3fe608060405234801561001057600080fd5b50600436106100415760003560e01c80633fa4f24514610046578063a02e9f3b14610061578063ff585caf14610076575b600080fd5b61004f60005481565b60405190815260200160405180910390f35b61007461006f366004610132565b610089565b005b6100746100843660046101d8565b610102565b604051637404015160e11b81526001600160a01b0382169063e80802a2906100c9908890889088903090600162a7a35160e01b0319908a906004016101f1565b600060405180830381600087803b1580156100e357600080fd5b505af11580156100f7573d6000803e3d6000fd5b505050505050505050565b80600054610110919061025a565b60005550565b80356001600160a01b038116811461012d57600080fd5b919050565b60008060008060006080868803121561014a57600080fd5b85359450602086013567ffffffffffffffff8082111561016957600080fd5b818801915088601f83011261017d57600080fd5b81358181111561018c57600080fd5b89602082850101111561019e57600080fd5b602083019650809550506040880135915080821682146101bd57600080fd5b5091506101cc60608701610116565b90509295509295909350565b6000602082840312156101ea57600080fd5b5035919050565b86815260a060208201528460a0820152848660c0830137600060c08683018101919091526001600160a01b039490941660408201526001600160e01b031992909216606083015267ffffffffffffffff166080820152601f909201601f19169091010192915050565b8082018082111561027b57634e487b7160e01b600052601160045260246000fd5b9291505056fea2646970667358221220eb6cdf07efcd36920bb412371c8d771ed79a1ccff174f040def92f46c79281bc64736f6c63430008140033","linkReferences":{}},"methodIdentifiers":{"callback(uint256)":"ff585caf","request_callback(bytes32,bytes,uint64,address)":"a02e9f3b","value()":"3fa4f245"},"id":55}