{"abi":[{"type":"function","name":"invokeCallbacks","inputs":[{"name":"","type":"tuple[]","internalType":"struct Proxy.Callback[]","components":[{"name":"auth","type":"tuple","internalType":"struct Proxy.CallbackAuthorization","components":[{"name":"seal","type":"bytes","internalType":"bytes"},{"name":"postStateDigest","type":"bytes32","internalType":"bytes32"}]},{"name":"callbackContract","type":"address","internalType":"address"},{"name":"payload","type":"bytes","internalType":"bytes"},{"name":"gasLimit","type":"uint64","internalType":"uint64"}]}],"outputs":[{"name":"","type":"bool[]","internalType":"bool[]"}],"stateMutability":"nonpayable"},{"type":"function","name":"requestCallback","inputs":[{"name":"imageId","type":"bytes32","internalType":"bytes32"},{"name":"input","type":"bytes","internalType":"bytes"},{"name":"callbackContract","type":"address","internalType":"address"},{"name":"functionSelector","type":"bytes4","internalType":"bytes4"},{"name":"gasLimit","type":"uint64","internalType":"uint64"}],"outputs":[],"stateMutability":"nonpayable"},{"type":"event","name":"CallbackRequest","inputs":[{"name":"account","type":"address","indexed":false,"internalType":"address"},{"name":"imageId","type":"bytes32","indexed":false,"internalType":"bytes32"},{"name":"input","type":"bytes","indexed":false,"internalType":"bytes"},{"name":"callbackContract","type":"address","indexed":false,"internalType":"address"},{"name":"functionSelector","type":"bytes4","indexed":false,"internalType":"bytes4"},{"name":"gasLimit","type":"uint64","indexed":false,"internalType":"uint64"}],"anonymous":false},{"type":"event","name":"ProofsSubmitted","inputs":[],"anonymous":false}],"bytecode":{"object":"0x608060405234801561001057600080fd5b50610359806100206000396000f3fe608060405234801561001057600080fd5b50600436106100365760003560e01c806313ef14121461003b578063e80802a214610064575b600080fd5b61004e610049366004610106565b610079565b60405161005b919061017b565b60405180910390f35b6100776100723660046101f6565b6100bb565b005b6040516060907ff91ad45be22995db29601925ae62b8fb1c0a2bc3ac736e75866291ad5e6108ce90600090a15050604080516000815260208101909152919050565b7f105b7c9dbbc865638cd7873341700bcf4c62dfc9a4f221425b56fde3408f6a85338787878787876040516100f697969594939291906102b1565b60405180910390a1505050505050565b6000806020838503121561011957600080fd5b823567ffffffffffffffff8082111561013157600080fd5b818501915085601f83011261014557600080fd5b81358181111561015457600080fd5b8660208260051b850101111561016957600080fd5b60209290920196919550909350505050565b6020808252825182820181905260009190848201906040850190845b818110156101b5578351151583529284019291840191600101610197565b50909695505050505050565b80356001600160e01b0319811681146101d957600080fd5b919050565b803567ffffffffffffffff811681146101d957600080fd5b60008060008060008060a0878903121561020f57600080fd5b86359550602087013567ffffffffffffffff8082111561022e57600080fd5b818901915089601f83011261024257600080fd5b81358181111561025157600080fd5b8a602082850101111561026357600080fd5b60209290920196509094505060408701356001600160a01b038116811461028957600080fd5b9250610297606088016101c1565b91506102a5608088016101de565b90509295509295509295565b600060018060a01b03808a16835288602084015260c060408401528660c0840152868860e0850137600060e088850181019190915295166060830152506001600160e01b031992909216608083015267ffffffffffffffff1660a0820152601f909201601f191690910101939250505056fea264697066735822122021a249712fc274943dc5b5477e64262d9a16f9adc79ee14c668bcfd22e4da03664736f6c63430008140033","linkReferences":{}},"methodIdentifiers":{"invokeCallbacks(((bytes,bytes32),address,bytes,uint64)[])":"13ef1412","requestCallback(bytes32,bytes,address,bytes4,uint64)":"e80802a2"},"id":56}