{"abi":[{"type":"constructor","inputs":[{"name":"verifier_","type":"address","internalType":"contract IRiscZeroVerifier"}],"stateMutability":"nonpayable"},{"type":"function","name":"callbackIsAuthorized","inputs":[{"name":"imageId","type":"bytes32","internalType":"bytes32"},{"name":"journal","type":"bytes","internalType":"bytes"},{"name":"auth","type":"tuple","internalType":"struct CallbackAuthorization","components":[{"name":"seal","type":"bytes","internalType":"bytes"},{"name":"postStateDigest","type":"bytes32","internalType":"bytes32"}]}],"outputs":[{"name":"","type":"bool","internalType":"bool"}],"stateMutability":"view"},{"type":"function","name":"invokeCallback","inputs":[{"name":"callback","type":"tuple","internalType":"struct Callback","components":[{"name":"auth","type":"tuple","internalType":"struct CallbackAuthorization","components":[{"name":"seal","type":"bytes","internalType":"bytes"},{"name":"postStateDigest","type":"bytes32","internalType":"bytes32"}]},{"name":"callbackContract","type":"address","internalType":"address"},{"name":"payload","type":"bytes","internalType":"bytes"},{"name":"gasLimit","type":"uint64","internalType":"uint64"}]}],"outputs":[],"stateMutability":"nonpayable"},{"type":"function","name":"invokeCallbacks","inputs":[{"name":"callbacks","type":"tuple[]","internalType":"struct Callback[]","components":[{"name":"auth","type":"tuple","internalType":"struct CallbackAuthorization","components":[{"name":"seal","type":"bytes","internalType":"bytes"},{"name":"postStateDigest","type":"bytes32","internalType":"bytes32"}]},{"name":"callbackContract","type":"address","internalType":"address"},{"name":"payload","type":"bytes","internalType":"bytes"},{"name":"gasLimit","type":"uint64","internalType":"uint64"}]}],"outputs":[{"name":"invocationResults","type":"bool[]","internalType":"bool[]"}],"stateMutability":"nonpayable"},{"type":"function","name":"parsePayload","inputs":[{"name":"payload","type":"bytes","internalType":"bytes"}],"outputs":[{"name":"","type":"bytes32","internalType":"bytes32"},{"name":"","type":"bytes","internalType":"bytes"}],"stateMutability":"pure"},{"type":"function","name":"requestCallback","inputs":[{"name":"imageId","type":"bytes32","internalType":"bytes32"},{"name":"input","type":"bytes","internalType":"bytes"},{"name":"callbackContract","type":"address","internalType":"address"},{"name":"functionSelector","type":"bytes4","internalType":"bytes4"},{"name":"gasLimit","type":"uint64","internalType":"uint64"}],"outputs":[],"stateMutability":"nonpayable"},{"type":"event","name":"CallbackRequest","inputs":[{"name":"account","type":"address","indexed":false,"internalType":"address"},{"name":"imageId","type":"bytes32","indexed":false,"internalType":"bytes32"},{"name":"input","type":"bytes","indexed":false,"internalType":"bytes"},{"name":"callbackContract","type":"address","indexed":false,"internalType":"address"},{"name":"functionSelector","type":"bytes4","indexed":false,"internalType":"bytes4"},{"name":"gasLimit","type":"uint64","indexed":false,"internalType":"uint64"}],"anonymous":false}],"bytecode":{"object":"0x60a060405234801561001057600080fd5b50604051610b7e380380610b7e83398101604081905261002f91610040565b6001600160a01b0316608052610070565b60006020828403121561005257600080fd5b81516001600160a01b038116811461006957600080fd5b9392505050565b608051610af361008b600039600061029a0152610af36000f3fe608060405234801561001057600080fd5b50600436106100575760003560e01c806313ef14121461005c57806359611e671461008557806383a19d39146100a8578063df055cf1146100bd578063e80802a2146100df575b600080fd5b61006f61006a366004610523565b6100f2565b60405161007c9190610598565b60405180910390f35b610098610093366004610627565b61028e565b604051901515815260200161007c565b6100bb6100b636600461069f565b61038b565b005b6100d06100cb3660046106e1565b610480565b60405161007c9392919061074c565b6100bb6100ed36600461079a565b6104d8565b60608167ffffffffffffffff81111561010d5761010d610827565b604051908082528060200260200182016040528015610136578160200160208202803683370190505b50905060005b8281101561028757368484838181106101575761015761083d565b90506020028101906101699190610853565b90506000368161017f6100cb6040860186610873565b9194509250905061019683838361009388806108ba565b6101bb5760405162461bcd60e51b81526004016101b2906108d0565b60405180910390fd5b6101cb6040850160208601610920565b6001600160a01b03166101e4608086016060870161093b565b67ffffffffffffffff166101fb6040870187610873565b604051610209929190610956565b60006040518083038160008787f1925050503d8060008114610247576040519150601f19603f3d011682016040523d82523d6000602084013e61024c565b606091505b50508686815181106102605761026061083d565b6020026020010181151515158152505050505050808061027f9061097c565b91505061013c565b5092915050565b60006001600160a01b037f000000000000000000000000000000000000000000000000000000000000000016636efef0096102c98480610873565b88866020013560028a8a6040516102e1929190610956565b602060405180830381855afa1580156102fe573d6000803e3d6000fd5b5050506040513d601f19601f820116820180604052508101906103219190610995565b6040518663ffffffff1660e01b81526004016103419594939291906109ae565b602060405180830381865afa15801561035e573d6000803e3d6000fd5b505050506040513d601f19601f8201168201806040525081019061038291906109df565b95945050505050565b6000368161039f6100cb6040860186610873565b919450925090506103b683838361009388806108ba565b6103d25760405162461bcd60e51b81526004016101b2906108d0565b6000806103e56040870160208801610920565b6001600160a01b03166103fe608088016060890161093b565b67ffffffffffffffff166104156040890189610873565b604051610423929190610956565b60006040518083038160008787f1925050503d8060008114610461576040519150601f19603f3d011682016040523d82523d6000602084013e610466565b606091505b50915091508161047857805160208201fd5b505050505050565b60003681808585610492602082610a01565b61049d928290610a1a565b6104a691610a44565b9050366000876004886104ba602082610a01565b926104c793929190610a1a565b939650945091925050509250925092565b7f105b7c9dbbc865638cd7873341700bcf4c62dfc9a4f221425b56fde3408f6a85338787878787876040516105139796959493929190610a62565b60405180910390a1505050505050565b6000806020838503121561053657600080fd5b823567ffffffffffffffff8082111561054e57600080fd5b818501915085601f83011261056257600080fd5b81358181111561057157600080fd5b8660208260051b850101111561058657600080fd5b60209290920196919550909350505050565b6020808252825182820181905260009190848201906040850190845b818110156105d25783511515835292840192918401916001016105b4565b50909695505050505050565b60008083601f8401126105f057600080fd5b50813567ffffffffffffffff81111561060857600080fd5b60208301915083602082850101111561062057600080fd5b9250929050565b6000806000806060858703121561063d57600080fd5b84359350602085013567ffffffffffffffff8082111561065c57600080fd5b610668888389016105de565b9095509350604087013591508082111561068157600080fd5b5085016040818803121561069457600080fd5b939692955090935050565b6000602082840312156106b157600080fd5b813567ffffffffffffffff8111156106c857600080fd5b8201608081850312156106da57600080fd5b9392505050565b600080602083850312156106f457600080fd5b823567ffffffffffffffff81111561070b57600080fd5b610717858286016105de565b90969095509350505050565b81835281816020850137506000828201602090810191909152601f909101601f19169091010190565b838152604060208201526000610382604083018486610723565b80356001600160a01b038116811461077d57600080fd5b919050565b803567ffffffffffffffff8116811461077d57600080fd5b60008060008060008060a087890312156107b357600080fd5b86359550602087013567ffffffffffffffff8111156107d157600080fd5b6107dd89828a016105de565b90965094506107f0905060408801610766565b925060608701356001600160e01b03198116811461080d57600080fd5b915061081b60808801610782565b90509295509295509295565b634e487b7160e01b600052604160045260246000fd5b634e487b7160e01b600052603260045260246000fd5b60008235607e1983360301811261086957600080fd5b9190910192915050565b6000808335601e1984360301811261088a57600080fd5b83018035915067ffffffffffffffff8211156108a557600080fd5b60200191503681900382131561062057600080fd5b60008235603e1983360301811261086957600080fd5b60208082526030908201527f426f6e73616952656c61793a2063616c6c6261636b20617574686f72697a617460408201526f1a5bdb8818da1958dac819985a5b195960821b606082015260800190565b60006020828403121561093257600080fd5b6106da82610766565b60006020828403121561094d57600080fd5b6106da82610782565b8183823760009101908152919050565b634e487b7160e01b600052601160045260246000fd5b60006001820161098e5761098e610966565b5060010190565b6000602082840312156109a757600080fd5b5051919050565b6080815260006109c2608083018789610723565b602083019590955250604081019290925260609091015292915050565b6000602082840312156109f157600080fd5b815180151581146106da57600080fd5b81810381811115610a1457610a14610966565b92915050565b60008085851115610a2a57600080fd5b83861115610a3757600080fd5b5050820193919092039150565b80356020831015610a1457600019602084900360031b1b1692915050565b600060018060a01b03808a16835288602084015260c06040840152610a8b60c08401888a610723565b95166060830152506001600160e01b031992909216608083015267ffffffffffffffff1660a09091015294935050505056fea26469706673582212201244a28100b2922c4e21ade18e66ca1fac8d7b694def468e7ef424187d78217364736f6c63430008140033","linkReferences":{}},"methodIdentifiers":{"callbackIsAuthorized(bytes32,bytes,(bytes,bytes32))":"59611e67","invokeCallback(((bytes,bytes32),address,bytes,uint64))":"83a19d39","invokeCallbacks(((bytes,bytes32),address,bytes,uint64)[])":"13ef1412","parsePayload(bytes)":"df055cf1","requestCallback(bytes32,bytes,address,bytes4,uint64)":"e80802a2"},"id":49}