{"abi":[{"type":"function","name":"CONTROL_ID_0","inputs":[],"outputs":[{"name":"","type":"uint256","internalType":"uint256"}],"stateMutability":"view"},{"type":"function","name":"CONTROL_ID_1","inputs":[],"outputs":[{"name":"","type":"uint256","internalType":"uint256"}],"stateMutability":"view"}],"bytecode":{"object":"0x60b6610039600b82828239805160001a60731461002c57634e487b7160e01b600052600060045260246000fd5b30600052607381538281f3fe7300000000000000000000000000000000000000003014608060405260043610603d5760003560e01c8063168b114614604257806386039a3114606a575b600080fd5b60586f39ff805954f4eb2868d338764408f76d81565b60405190815260200160405180910390f35b60586f15cf3a5f4097269e3a6d921c186255318156fea264697066735822122036f552eaf53406db75ea6064593a0cc3ed449a7cf64d14c617f63ae8b217a80264736f6c63430008140033","linkReferences":{}},"methodIdentifiers":{"CONTROL_ID_0()":"168b1146","CONTROL_ID_1()":"86039a31"},"id":31}