{"abi":[{"type":"function","name":"IMAGE_ID","inputs":[],"outputs":[{"name":"","type":"bytes32","internalType":"bytes32"}],"stateMutability":"view"},{"type":"function","name":"JOURNAL","inputs":[],"outputs":[{"name":"","type":"bytes","internalType":"bytes"}],"stateMutability":"view"},{"type":"function","name":"POST_DIGEST","inputs":[],"outputs":[{"name":"","type":"bytes32","internalType":"bytes32"}],"stateMutability":"view"},{"type":"function","name":"SEAL","inputs":[],"outputs":[{"name":"","type":"bytes","internalType":"bytes"}],"stateMutability":"view"}],"bytecode":{"object":"0x61028961003a600b82828239805160001a60731461002d57634e487b7160e01b600052600060045260246000fd5b30600052607381538281f3fe73000000000000000000000000000000000000000030146080604052600436106100565760003560e01c8063081c39091461005b578063549206ed146100875780638532efe3146100bc578063f9a21dce146100e3575b600080fd5b6100716040518060200160405280600081525081565b60405161007e9190610105565b60405180910390f35b6100ae7fb1b5572254d75b231b1cdcc07cfa7bdb61a0ef2701965a0483d207c25cd9a77f81565b60405190815260200161007e565b6100ae7f9a1a653b6ac4ab399d7ca5939ffc3ff35d6c8f225af26c80d9d7846e26ab77a881565b6100716040518061012001604052806101008152602001610154610100913981565b600060208083528351808285015260005b8181101561013257858101830151858201604001528201610116565b506000604082860101526040601f19601f830116850101925050509291505056fe24900daf58fe808c62915fd7bdb6824905e3fe1803ce5403f9f8d9dc7093a82427b1eebb7e758e809071b9c7b552453ab7c7350934fc692ac3378b9aabf615fa0570e34568aa3a1eb73e68ff2390ddb4fb93b7b2d970411fe80ba0e81fec787a2c970d93996fb4c77f1bd50857c76c855cfeb75146121e30d72aceda613968122b934d84e93bc51aae5a41587f0e33918db801631f03eeae6b31e534554b0f180f1f4cb9da9d57a75f6c5cfbe465cb147da61fc5ae7b2e30129fe162ec8ba86018a03bcbd34f8357022d2b1438936d10ffad01a225dbbead509a46d3f62ea43328a2112dc0a104e629366ad95e1eec3152df91865ed10fe0014c69f498906da1a26469706673582212205a35076b8afb749fb79c992e6caaa6c78c834a0dbc999d2087a5ec40ddfcf98364736f6c63430008140033","linkReferences":{}},"methodIdentifiers":{"IMAGE_ID()":"549206ed","JOURNAL()":"081c3909","POST_DIGEST()":"8532efe3","SEAL()":"f9a21dce"},"id":58}